{
  "contractName": "Voting",
  "abi": [
    {
      "inputs": [
        {
          "internalType": "string[]",
          "name": "candidateNames",
          "type": "string[]"
        }
      ],
      "stateMutability": "nonpayable",
      "type": "constructor"
    },
    {
      "inputs": [
        {
          "internalType": "uint256",
          "name": "",
          "type": "uint256"
        }
      ],
      "name": "candidates",
      "outputs": [
        {
          "internalType": "string",
          "name": "name",
          "type": "string"
        },
        {
          "internalType": "uint256",
          "name": "voteCount",
          "type": "uint256"
        }
      ],
      "stateMutability": "view",
      "type": "function",
      "constant": true
    },
    {
      "inputs": [
        {
          "internalType": "address",
          "name": "",
          "type": "address"
        }
      ],
      "name": "registeredVoters",
      "outputs": [
        {
          "internalType": "bool",
          "name": "",
          "type": "bool"
        }
      ],
      "stateMutability": "view",
      "type": "function",
      "constant": true
    },
    {
      "inputs": [],
      "name": "registerVoter",
      "outputs": [],
      "stateMutability": "nonpayable",
      "type": "function"
    },
    {
      "inputs": [
        {
          "internalType": "uint256",
          "name": "candidateIndex",
          "type": "uint256"
        }
      ],
      "name": "castVote",
      "outputs": [],
      "stateMutability": "nonpayable",
      "type": "function"
    },
    {
      "inputs": [],
      "name": "getCandidateCount",
      "outputs": [
        {
          "internalType": "uint256",
          "name": "",
          "type": "uint256"
        }
      ],
      "stateMutability": "view",
      "type": "function",
      "constant": true
    }
  ],
  "bytecode": "0x60806040523480156200001157600080fd5b5060405162000daa38038062000daa8339818101604052810190620000379190620002c3565b60005b81518110156200010757600060405180604001604052808484815181106200008b577f4e487b7100000000000000000000000000000000000000000000000000000000600052603260045260246000fd5b60200260200101518152602001600081525090806001815401808255809150506001900390600052602060002090600202016000909190919091506000820151816000019080519060200190620000e49291906200010f565b506020820151816001015550508080620000fe9062000414565b9150506200003a565b5050620004ef565b8280546200011d90620003de565b90600052602060002090601f0160209004810192826200014157600085556200018d565b82601f106200015c57805160ff19168380011785556200018d565b828001600101855582156200018d579182015b828111156200018c5782518255916020019190600101906200016f565b5b5090506200019c9190620001a0565b5090565b5b80821115620001bb576000816000905550600101620001a1565b5090565b6000620001d6620001d0846200033c565b62000308565b9050808382526020820190508260005b858110156200021a5781518501620001ff888262000296565b845260208401935060208301925050600181019050620001e6565b5050509392505050565b60006200023b62000235846200036b565b62000308565b9050828152602081018484840111156200025457600080fd5b62000261848285620003a8565b509392505050565b600082601f8301126200027b57600080fd5b81516200028d848260208601620001bf565b91505092915050565b600082601f830112620002a857600080fd5b8151620002ba84826020860162000224565b91505092915050565b600060208284031215620002d657600080fd5b600082015167ffffffffffffffff811115620002f157600080fd5b620002ff8482850162000269565b91505092915050565b6000604051905081810181811067ffffffffffffffff82111715620003325762000331620004c0565b5b8060405250919050565b600067ffffffffffffffff8211156200035a5762000359620004c0565b5b602082029050602081019050919050565b600067ffffffffffffffff821115620003895762000388620004c0565b5b601f19601f8301169050602081019050919050565b6000819050919050565b60005b83811015620003c8578082015181840152602081019050620003ab565b83811115620003d8576000848401525b50505050565b60006002820490506001821680620003f757607f821691505b602082108114156200040e576200040d62000491565b5b50919050565b600062000421826200039e565b91507fffffffffffffffffffffffffffffffffffffffffffffffffffffffffffffffff82141562000457576200045662000462565b5b600182019050919050565b7f4e487b7100000000000000000000000000000000000000000000000000000000600052601160045260246000fd5b7f4e487b7100000000000000000000000000000000000000000000000000000000600052602260045260246000fd5b7f4e487b7100000000000000000000000000000000000000000000000000000000600052604160045260246000fd5b6108ab80620004ff6000396000f3fe608060405234801561001057600080fd5b50600436106100575760003560e01c806330a563471461005c5780633477ee2e1461007a5780633eb76b9c146100ab578063a9ff6df1146100c7578063ecb617d9146100f7575b600080fd5b610064610101565b604051610071919061069e565b60405180910390f35b610094600480360381019061008f91906104b3565b61010d565b6040516100a292919061060e565b60405180910390f35b6100c560048036038101906100c091906104b3565b6101c9565b005b6100e160048036038101906100dc919061048a565b61035a565b6040516100ee91906105f3565b60405180910390f35b6100ff61037a565b005b60008080549050905090565b6000818154811061011d57600080fd5b9060005260206000209060020201600091509050806000018054610140906107a6565b80601f016020809104026020016040519081016040528092919081815260200182805461016c906107a6565b80156101b95780601f1061018e576101008083540402835291602001916101b9565b820191906000526020600020905b81548152906001019060200180831161019c57829003601f168201915b5050505050908060010154905082565b600160003373ffffffffffffffffffffffffffffffffffffffff1673ffffffffffffffffffffffffffffffffffffffff16815260200190815260200160002060009054906101000a900460ff16610255576040517f08c379a000000000000000000000000000000000000000000000000000000000815260040161024c9061067e565b60405180910390fd5b600080549050811061029c576040517f08c379a00000000000000000000000000000000000000000000000000000000081526004016102939061065e565b60405180910390fd5b6001600082815481106102d8577f4e487b7100000000000000000000000000000000000000000000000000000000600052603260045260246000fd5b906000526020600020906002020160010160008282546102f891906106d5565b925050819055506000600160003373ffffffffffffffffffffffffffffffffffffffff1673ffffffffffffffffffffffffffffffffffffffff16815260200190815260200160002060006101000a81548160ff02191690831515021790555050565b60016020528060005260406000206000915054906101000a900460ff1681565b600160003373ffffffffffffffffffffffffffffffffffffffff1673ffffffffffffffffffffffffffffffffffffffff16815260200190815260200160002060009054906101000a900460ff1615610407576040517f08c379a00000000000000000000000000000000000000000000000000000000081526004016103fe9061063e565b60405180910390fd5b60018060003373ffffffffffffffffffffffffffffffffffffffff1673ffffffffffffffffffffffffffffffffffffffff16815260200190815260200160002060006101000a81548160ff021916908315150217905550565b60008135905061046f81610847565b92915050565b6000813590506104848161085e565b92915050565b60006020828403121561049c57600080fd5b60006104aa84828501610460565b91505092915050565b6000602082840312156104c557600080fd5b60006104d384828501610475565b91505092915050565b6104e58161073d565b82525050565b60006104f6826106b9565b61050081856106c4565b9350610510818560208601610773565b61051981610836565b840191505092915050565b60006105316013836106c4565b91507f416c726561647920726567697374657265642e000000000000000000000000006000830152602082019050919050565b60006105716018836106c4565b91507f496e76616c69642063616e64696461746520696e6465782e00000000000000006000830152602082019050919050565b60006105b1601f836106c4565b91507f596f75206d757374206265207265676973746572656420746f20766f74652e006000830152602082019050919050565b6105ed81610769565b82525050565b600060208201905061060860008301846104dc565b92915050565b6000604082019050818103600083015261062881856104eb565b905061063760208301846105e4565b9392505050565b6000602082019050818103600083015261065781610524565b9050919050565b6000602082019050818103600083015261067781610564565b9050919050565b60006020820190508181036000830152610697816105a4565b9050919050565b60006020820190506106b360008301846105e4565b92915050565b600081519050919050565b600082825260208201905092915050565b60006106e082610769565b91506106eb83610769565b9250827fffffffffffffffffffffffffffffffffffffffffffffffffffffffffffffffff038211156107205761071f6107d8565b5b828201905092915050565b600061073682610749565b9050919050565b60008115159050919050565b600073ffffffffffffffffffffffffffffffffffffffff82169050919050565b6000819050919050565b60005b83811015610791578082015181840152602081019050610776565b838111156107a0576000848401525b50505050565b600060028204905060018216806107be57607f821691505b602082108114156107d2576107d1610807565b5b50919050565b7f4e487b7100000000000000000000000000000000000000000000000000000000600052601160045260246000fd5b7f4e487b7100000000000000000000000000000000000000000000000000000000600052602260045260246000fd5b6000601f19601f8301169050919050565b6108508161072b565b811461085b57600080fd5b50565b61086781610769565b811461087257600080fd5b5056fea2646970667358221220e47dd764ecd91e1828c69eded857ea1f418d26e4c6abf5c3bdab39fc9df553c264736f6c63430008000033",
  "immutableReferences": {},
  "source": "// SPDX-License-Identifier: MIT\r\npragma solidity ^0.8.0;\r\n\r\ncontract Voting {\r\n    struct Candidate {\r\n        string name;\r\n        uint voteCount;\r\n    }\r\n\r\n    Candidate[] public candidates;\r\n\r\n    mapping(address => bool) public registeredVoters;\r\n\r\n    constructor(string[] memory candidateNames) {\r\n        for (uint i = 0; i < candidateNames.length; i++) {\r\n            candidates.push(Candidate(candidateNames[i], 0));\r\n        }\r\n    }\r\n\r\n    function registerVoter() public {\r\n        require(!registeredVoters[msg.sender], \"Already registered.\");\r\n        registeredVoters[msg.sender] = true;\r\n    }\r\n\r\n    function castVote(uint candidateIndex) public {\r\n        require(registeredVoters[msg.sender], \"You must be registered to vote.\");\r\n        require(candidateIndex < candidates.length, \"Invalid candidate index.\");\r\n        candidates[candidateIndex].voteCount += 1;\r\n        registeredVoters[msg.sender] = false; // Prevent double voting\r\n    }\r\n\r\n    function getCandidateCount() public view returns (uint) {\r\n        return candidates.length;\r\n    }\r\n}\r\n",
  "sourcePath": "C:\\Users\\patel\\Desktop\\Distributed Systems - Final Project\\contracts\\Voting.sol",
  "compiler": {
    "name": "solc",
    "version": "0.8.0+commit.c7dfd78e.Emscripten.clang"
  },
  "schemaVersion": "3.4.16",
  "updatedAt": "2024-11-15T01:44:43.213Z",
  "networkType": "ethereum",
  "devdoc": {
    "kind": "dev",
    "methods": {},
    "version": 1
  },
  "userdoc": {
    "kind": "user",
    "methods": {},
    "version": 1
  }
}