{
  "contractName": "Voting",
  "abi": [
    {
      "inputs": [
        {
          "internalType": "string[]",
          "name": "candidateNames",
          "type": "string[]"
        }
      ],
      "stateMutability": "nonpayable",
      "type": "constructor"
    },
    {
      "anonymous": false,
      "inputs": [
        {
          "indexed": false,
          "internalType": "address",
          "name": "voter",
          "type": "address"
        },
        {
          "indexed": false,
          "internalType": "uint256",
          "name": "candidateIndex",
          "type": "uint256"
        }
      ],
      "name": "VoteCast",
      "type": "event"
    },
    {
      "anonymous": false,
      "inputs": [
        {
          "indexed": false,
          "internalType": "address",
          "name": "voter",
          "type": "address"
        }
      ],
      "name": "VoterRegistered",
      "type": "event"
    },
    {
      "inputs": [
        {
          "internalType": "uint256",
          "name": "",
          "type": "uint256"
        }
      ],
      "name": "candidates",
      "outputs": [
        {
          "internalType": "string",
          "name": "name",
          "type": "string"
        },
        {
          "internalType": "uint256",
          "name": "voteCount",
          "type": "uint256"
        }
      ],
      "stateMutability": "view",
      "type": "function",
      "constant": true
    },
    {
      "inputs": [
        {
          "internalType": "address",
          "name": "",
          "type": "address"
        }
      ],
      "name": "registeredVoters",
      "outputs": [
        {
          "internalType": "bool",
          "name": "",
          "type": "bool"
        }
      ],
      "stateMutability": "view",
      "type": "function",
      "constant": true
    },
    {
      "inputs": [
        {
          "internalType": "address",
          "name": "voter",
          "type": "address"
        }
      ],
      "name": "registerVoter",
      "outputs": [],
      "stateMutability": "nonpayable",
      "type": "function"
    },
    {
      "inputs": [
        {
          "internalType": "uint256",
          "name": "candidateIndex",
          "type": "uint256"
        }
      ],
      "name": "castVote",
      "outputs": [],
      "stateMutability": "nonpayable",
      "type": "function"
    },
    {
      "inputs": [
        {
          "internalType": "uint256",
          "name": "candidateIndex",
          "type": "uint256"
        }
      ],
      "name": "registerOrVote",
      "outputs": [],
      "stateMutability": "nonpayable",
      "type": "function"
    },
    {
      "inputs": [],
      "name": "getCandidateCount",
      "outputs": [
        {
          "internalType": "uint256",
          "name": "",
          "type": "uint256"
        }
      ],
      "stateMutability": "view",
      "type": "function",
      "constant": true
    },
    {
      "inputs": [
        {
          "internalType": "uint256",
          "name": "index",
          "type": "uint256"
        }
      ],
      "name": "getCandidateDetails",
      "outputs": [
        {
          "internalType": "string",
          "name": "name",
          "type": "string"
        },
        {
          "internalType": "uint256",
          "name": "voteCount",
          "type": "uint256"
        }
      ],
      "stateMutability": "view",
      "type": "function",
      "constant": true
    }
  ],
  "bytecode": "0x60806040523480156200001157600080fd5b5060405162001261380380620012618339818101604052810190620000379190620002c3565b60005b81518110156200010757600060405180604001604052808484815181106200008b577f4e487b7100000000000000000000000000000000000000000000000000000000600052603260045260246000fd5b60200260200101518152602001600081525090806001815401808255809150506001900390600052602060002090600202016000909190919091506000820151816000019080519060200190620000e49291906200010f565b506020820151816001015550508080620000fe9062000414565b9150506200003a565b5050620004ef565b8280546200011d90620003de565b90600052602060002090601f0160209004810192826200014157600085556200018d565b82601f106200015c57805160ff19168380011785556200018d565b828001600101855582156200018d579182015b828111156200018c5782518255916020019190600101906200016f565b5b5090506200019c9190620001a0565b5090565b5b80821115620001bb576000816000905550600101620001a1565b5090565b6000620001d6620001d0846200033c565b62000308565b9050808382526020820190508260005b858110156200021a5781518501620001ff888262000296565b845260208401935060208301925050600181019050620001e6565b5050509392505050565b60006200023b62000235846200036b565b62000308565b9050828152602081018484840111156200025457600080fd5b62000261848285620003a8565b509392505050565b600082601f8301126200027b57600080fd5b81516200028d848260208601620001bf565b91505092915050565b600082601f830112620002a857600080fd5b8151620002ba84826020860162000224565b91505092915050565b600060208284031215620002d657600080fd5b600082015167ffffffffffffffff811115620002f157600080fd5b620002ff8482850162000269565b91505092915050565b6000604051905081810181811067ffffffffffffffff82111715620003325762000331620004c0565b5b8060405250919050565b600067ffffffffffffffff8211156200035a5762000359620004c0565b5b602082029050602081019050919050565b600067ffffffffffffffff821115620003895762000388620004c0565b5b601f19601f8301169050602081019050919050565b6000819050919050565b60005b83811015620003c8578082015181840152602081019050620003ab565b83811115620003d8576000848401525b50505050565b60006002820490506001821680620003f757607f821691505b602082108114156200040e576200040d62000491565b5b50919050565b600062000421826200039e565b91507fffffffffffffffffffffffffffffffffffffffffffffffffffffffffffffffff82141562000457576200045662000462565b5b600182019050919050565b7f4e487b7100000000000000000000000000000000000000000000000000000000600052601160045260246000fd5b7f4e487b7100000000000000000000000000000000000000000000000000000000600052602260045260246000fd5b7f4e487b7100000000000000000000000000000000000000000000000000000000600052604160045260246000fd5b610d6280620004ff6000396000f3fe608060405234801561001057600080fd5b506004361061007d5760003560e01c80633477ee2e1161005b5780633477ee2e146100ed57806338db6dd31461011e5780633eb76b9c1461013a578063a9ff6df1146101565761007d565b806312397bc81461008257806327f9fd501461009e57806330a56347146100cf575b600080fd5b61009c60048036038101906100979190610917565b610186565b005b6100b860048036038101906100b39190610917565b6103a4565b6040516100c6929190610ac5565b60405180910390f35b6100d76104f4565b6040516100e49190610b55565b60405180910390f35b61010760048036038101906101029190610917565b610500565b604051610115929190610ac5565b60405180910390f35b610138600480360381019061013391906108ee565b6105bc565b005b610154600480360381019061014f9190610917565b6106da565b005b610170600480360381019061016b91906108ee565b6108a4565b60405161017d9190610aaa565b60405180910390f35b600160003373ffffffffffffffffffffffffffffffffffffffff1673ffffffffffffffffffffffffffffffffffffffff16815260200190815260200160002060009054906101000a900460ff166102665760018060003373ffffffffffffffffffffffffffffffffffffffff1673ffffffffffffffffffffffffffffffffffffffff16815260200190815260200160002060006101000a81548160ff0219169083151502179055507fb6be2187d059cc2a55fe29e0e503b566e1e0f8c8780096e185429350acffd3dd3360405161025d9190610a66565b60405180910390a15b60008054905081106102ad576040517f08c379a00000000000000000000000000000000000000000000000000000000081526004016102a490610af5565b60405180910390fd5b6001600082815481106102e9577f4e487b7100000000000000000000000000000000000000000000000000000000600052603260045260246000fd5b906000526020600020906002020160010160008282546103099190610b8c565b925050819055506000600160003373ffffffffffffffffffffffffffffffffffffffff1673ffffffffffffffffffffffffffffffffffffffff16815260200190815260200160002060006101000a81548160ff0219169083151502179055507fa36cc2bebb74db33e9f88110a07ef56e1b31b24b4c4f51b54b1664266e29f45b3382604051610399929190610a81565b60405180910390a150565b60606000808054905083106103ee576040517f08c379a00000000000000000000000000000000000000000000000000000000081526004016103e590610af5565b60405180910390fd5b6000808481548110610429577f4e487b7100000000000000000000000000000000000000000000000000000000600052603260045260246000fd5b906000526020600020906002020160405180604001604052908160008201805461045290610c5d565b80601f016020809104026020016040519081016040528092919081815260200182805461047e90610c5d565b80156104cb5780601f106104a0576101008083540402835291602001916104cb565b820191906000526020600020905b8154815290600101906020018083116104ae57829003601f168201915b505050505081526020016001820154815250509050806000015181602001519250925050915091565b60008080549050905090565b6000818154811061051057600080fd5b906000526020600020906002020160009150905080600001805461053390610c5d565b80601f016020809104026020016040519081016040528092919081815260200182805461055f90610c5d565b80156105ac5780601f10610581576101008083540402835291602001916105ac565b820191906000526020600020905b81548152906001019060200180831161058f57829003601f168201915b5050505050908060010154905082565b600160008273ffffffffffffffffffffffffffffffffffffffff1673ffffffffffffffffffffffffffffffffffffffff16815260200190815260200160002060009054906101000a900460ff1615610649576040517f08c379a000000000000000000000000000000000000000000000000000000000815260040161064090610b35565b60405180910390fd5b60018060008373ffffffffffffffffffffffffffffffffffffffff1673ffffffffffffffffffffffffffffffffffffffff16815260200190815260200160002060006101000a81548160ff0219169083151502179055507fb6be2187d059cc2a55fe29e0e503b566e1e0f8c8780096e185429350acffd3dd816040516106cf9190610a66565b60405180910390a150565b600160003373ffffffffffffffffffffffffffffffffffffffff1673ffffffffffffffffffffffffffffffffffffffff16815260200190815260200160002060009054906101000a900460ff16610766576040517f08c379a000000000000000000000000000000000000000000000000000000000815260040161075d90610b15565b60405180910390fd5b60008054905081106107ad576040517f08c379a00000000000000000000000000000000000000000000000000000000081526004016107a490610af5565b60405180910390fd5b6001600082815481106107e9577f4e487b7100000000000000000000000000000000000000000000000000000000600052603260045260246000fd5b906000526020600020906002020160010160008282546108099190610b8c565b925050819055506000600160003373ffffffffffffffffffffffffffffffffffffffff1673ffffffffffffffffffffffffffffffffffffffff16815260200190815260200160002060006101000a81548160ff0219169083151502179055507fa36cc2bebb74db33e9f88110a07ef56e1b31b24b4c4f51b54b1664266e29f45b3382604051610899929190610a81565b60405180910390a150565b60016020528060005260406000206000915054906101000a900460ff1681565b6000813590506108d381610cfe565b92915050565b6000813590506108e881610d15565b92915050565b60006020828403121561090057600080fd5b600061090e848285016108c4565b91505092915050565b60006020828403121561092957600080fd5b6000610937848285016108d9565b91505092915050565b61094981610be2565b82525050565b61095881610bf4565b82525050565b600061096982610b70565b6109738185610b7b565b9350610983818560208601610c2a565b61098c81610ced565b840191505092915050565b60006109a4601883610b7b565b91507f496e76616c69642063616e64696461746520696e6465782e00000000000000006000830152602082019050919050565b60006109e4601f83610b7b565b91507f596f75206d757374206265207265676973746572656420746f20766f74652e006000830152602082019050919050565b6000610a24601c83610b7b565b91507f566f74657220697320616c726561647920726567697374657265642e000000006000830152602082019050919050565b610a6081610c20565b82525050565b6000602082019050610a7b6000830184610940565b92915050565b6000604082019050610a966000830185610940565b610aa36020830184610a57565b9392505050565b6000602082019050610abf600083018461094f565b92915050565b60006040820190508181036000830152610adf818561095e565b9050610aee6020830184610a57565b9392505050565b60006020820190508181036000830152610b0e81610997565b9050919050565b60006020820190508181036000830152610b2e816109d7565b9050919050565b60006020820190508181036000830152610b4e81610a17565b9050919050565b6000602082019050610b6a6000830184610a57565b92915050565b600081519050919050565b600082825260208201905092915050565b6000610b9782610c20565b9150610ba283610c20565b9250827fffffffffffffffffffffffffffffffffffffffffffffffffffffffffffffffff03821115610bd757610bd6610c8f565b5b828201905092915050565b6000610bed82610c00565b9050919050565b60008115159050919050565b600073ffffffffffffffffffffffffffffffffffffffff82169050919050565b6000819050919050565b60005b83811015610c48578082015181840152602081019050610c2d565b83811115610c57576000848401525b50505050565b60006002820490506001821680610c7557607f821691505b60208210811415610c8957610c88610cbe565b5b50919050565b7f4e487b7100000000000000000000000000000000000000000000000000000000600052601160045260246000fd5b7f4e487b7100000000000000000000000000000000000000000000000000000000600052602260045260246000fd5b6000601f19601f8301169050919050565b610d0781610be2565b8114610d1257600080fd5b50565b610d1e81610c20565b8114610d2957600080fd5b5056fea2646970667358221220c73a0cd906fbbe9ec226ee87b758b651724cf916bb4875d496ca4b6a664310ae64736f6c63430008000033",
  "immutableReferences": {},
  "source": "// SPDX-License-Identifier: MIT\npragma solidity ^0.8.0;\n\ncontract Voting {\n    struct Candidate {\n        string name;\n        uint voteCount;\n    }\n\n    Candidate[] public candidates;\n\n    // Mapping to track registered voters\n    mapping(address => bool) public registeredVoters;\n\n    // Event for logging voter registration\n    event VoterRegistered(address voter);\n\n    // Event for logging vote casting\n    event VoteCast(address voter, uint candidateIndex);\n\n    constructor(string[] memory candidateNames) {\n        for (uint i = 0; i < candidateNames.length; i++) {\n            candidates.push(Candidate(candidateNames[i], 0));\n        }\n    }\n\n    // Function to register a voter by their address\n    function registerVoter(address voter) public {\n        require(!registeredVoters[voter], \"Voter is already registered.\");\n        registeredVoters[voter] = true;\n        emit VoterRegistered(voter);\n    }\n\n    // Function to cast a vote for a candidate\n    function castVote(uint candidateIndex) public {\n        require(registeredVoters[msg.sender], \"You must be registered to vote.\");\n        require(candidateIndex < candidates.length, \"Invalid candidate index.\");\n        candidates[candidateIndex].voteCount += 1;\n        registeredVoters[msg.sender] = false; // Prevent double voting\n        emit VoteCast(msg.sender, candidateIndex);\n    }\n\n    // Unified function for registration and voting (optional usage)\n    function registerOrVote(uint candidateIndex) public {\n        if (!registeredVoters[msg.sender]) {\n            registeredVoters[msg.sender] = true;\n            emit VoterRegistered(msg.sender);\n        }\n\n        require(candidateIndex < candidates.length, \"Invalid candidate index.\");\n        candidates[candidateIndex].voteCount += 1;\n        registeredVoters[msg.sender] = false; // Prevent double voting\n        emit VoteCast(msg.sender, candidateIndex);\n    }\n\n    // Function to get the number of candidates\n    function getCandidateCount() public view returns (uint) {\n        return candidates.length;\n    }\n\n    // Function to get the details of a candidate\n    function getCandidateDetails(uint index) public view returns (string memory name, uint voteCount) {\n        require(index < candidates.length, \"Invalid candidate index.\");\n        Candidate memory candidate = candidates[index];\n        return (candidate.name, candidate.voteCount);\n    }\n}\n\n",
  "sourcePath": "d:\\Shahab 2024-25\\4th Year\\Distributed Systems\\FinalProject\\VotingSystem2-push2\\contracts\\Voting.sol",
  "compiler": {
    "name": "solc",
    "version": "0.8.0+commit.c7dfd78e.Emscripten.clang"
  },
  "schemaVersion": "3.4.16",
  "updatedAt": "2024-11-28T07:11:37.156Z",
  "networkType": "ethereum",
  "devdoc": {
    "kind": "dev",
    "methods": {},
    "version": 1
  },
  "userdoc": {
    "kind": "user",
    "methods": {},
    "version": 1
  }
}